{
  "contractName": "FreelanceManagementPlatform",
  "abi": [
    {
      "anonymous": false,
      "inputs": [
        {
          "indexed": false,
          "internalType": "uint256",
          "name": "disputeId",
          "type": "uint256"
        },
        {
          "indexed": false,
          "internalType": "uint256",
          "name": "projectId",
          "type": "uint256"
        },
        {
          "indexed": false,
          "internalType": "uint256",
          "name": "milestoneIndex",
          "type": "uint256"
        }
      ],
      "name": "DisputeCreated",
      "type": "event"
    },
    {
      "anonymous": false,
      "inputs": [
        {
          "indexed": false,
          "internalType": "uint256",
          "name": "disputeId",
          "type": "uint256"
        },
        {
          "indexed": false,
          "internalType": "bool",
          "name": "milestoneApproved",
          "type": "bool"
        }
      ],
      "name": "DisputeResolved",
      "type": "event"
    },
    {
      "anonymous": false,
      "inputs": [
        {
          "indexed": false,
          "internalType": "uint256",
          "name": "projectId",
          "type": "uint256"
        },
        {
          "indexed": false,
          "internalType": "uint256",
          "name": "milestoneIndex",
          "type": "uint256"
        }
      ],
      "name": "MilestoneApproved",
      "type": "event"
    },
    {
      "anonymous": false,
      "inputs": [
        {
          "indexed": false,
          "internalType": "uint256",
          "name": "projectId",
          "type": "uint256"
        },
        {
          "indexed": false,
          "internalType": "uint256",
          "name": "milestoneIndex",
          "type": "uint256"
        }
      ],
      "name": "MilestoneSubmitted",
      "type": "event"
    },
    {
      "anonymous": false,
      "inputs": [
        {
          "indexed": false,
          "internalType": "uint256",
          "name": "projectId",
          "type": "uint256"
        },
        {
          "indexed": false,
          "internalType": "address",
          "name": "client",
          "type": "address"
        },
        {
          "indexed": false,
          "internalType": "address",
          "name": "freelancer",
          "type": "address"
        }
      ],
      "name": "ProjectCreated",
      "type": "event"
    },
    {
      "inputs": [],
      "name": "disputeCount",
      "outputs": [
        {
          "internalType": "uint256",
          "name": "",
          "type": "uint256"
        }
      ],
      "stateMutability": "view",
      "type": "function"
    },
    {
      "inputs": [
        {
          "internalType": "uint256",
          "name": "",
          "type": "uint256"
        }
      ],
      "name": "disputes",
      "outputs": [
        {
          "internalType": "uint256",
          "name": "projectId",
          "type": "uint256"
        },
        {
          "internalType": "uint256",
          "name": "milestoneIndex",
          "type": "uint256"
        },
        {
          "internalType": "uint256",
          "name": "votesForCompletion",
          "type": "uint256"
        },
        {
          "internalType": "uint256",
          "name": "votesAgainstCompletion",
          "type": "uint256"
        },
        {
          "internalType": "bool",
          "name": "resolved",
          "type": "bool"
        }
      ],
      "stateMutability": "view",
      "type": "function"
    },
    {
      "inputs": [],
      "name": "projectCount",
      "outputs": [
        {
          "internalType": "uint256",
          "name": "",
          "type": "uint256"
        }
      ],
      "stateMutability": "view",
      "type": "function"
    },
    {
      "inputs": [
        {
          "internalType": "uint256",
          "name": "",
          "type": "uint256"
        }
      ],
      "name": "projects",
      "outputs": [
        {
          "internalType": "address",
          "name": "client",
          "type": "address"
        },
        {
          "internalType": "address",
          "name": "freelancer",
          "type": "address"
        },
        {
          "internalType": "bool",
          "name": "projectComplete",
          "type": "bool"
        },
        {
          "internalType": "uint256",
          "name": "escrowedAmount",
          "type": "uint256"
        }
      ],
      "stateMutability": "view",
      "type": "function"
    },
    {
      "inputs": [],
      "name": "depositToEscrow",
      "outputs": [],
      "stateMutability": "payable",
      "type": "function"
    },
    {
      "inputs": [
        {
          "internalType": "address",
          "name": "freelancer",
          "type": "address"
        },
        {
          "internalType": "uint256[]",
          "name": "milestones",
          "type": "uint256[]"
        },
        {
          "internalType": "string[]",
          "name": "descriptions",
          "type": "string[]"
        }
      ],
      "name": "createProject",
      "outputs": [],
      "stateMutability": "payable",
      "type": "function"
    },
    {
      "inputs": [
        {
          "internalType": "uint256",
          "name": "projectId",
          "type": "uint256"
        },
        {
          "internalType": "uint256",
          "name": "milestoneIndex",
          "type": "uint256"
        }
      ],
      "name": "submitMilestone",
      "outputs": [],
      "stateMutability": "nonpayable",
      "type": "function"
    },
    {
      "inputs": [
        {
          "internalType": "uint256",
          "name": "projectId",
          "type": "uint256"
        },
        {
          "internalType": "uint256",
          "name": "milestoneIndex",
          "type": "uint256"
        }
      ],
      "name": "approveMilestone",
      "outputs": [],
      "stateMutability": "nonpayable",
      "type": "function"
    },
    {
      "inputs": [
        {
          "internalType": "uint256",
          "name": "projectId",
          "type": "uint256"
        },
        {
          "internalType": "uint256",
          "name": "milestoneIndex",
          "type": "uint256"
        }
      ],
      "name": "disputeMilestone",
      "outputs": [],
      "stateMutability": "nonpayable",
      "type": "function"
    },
    {
      "inputs": [
        {
          "internalType": "uint256",
          "name": "disputeId",
          "type": "uint256"
        },
        {
          "internalType": "bool",
          "name": "voteForCompletion",
          "type": "bool"
        }
      ],
      "name": "voteOnDispute",
      "outputs": [
        {
          "internalType": "bool",
          "name": "",
          "type": "bool"
        }
      ],
      "stateMutability": "nonpayable",
      "type": "function"
    },
    {
      "inputs": [
        {
          "internalType": "uint256",
          "name": "projectId",
          "type": "uint256"
        }
      ],
      "name": "finalizeProject",
      "outputs": [
        {
          "internalType": "bool",
          "name": "",
          "type": "bool"
        }
      ],
      "stateMutability": "view",
      "type": "function"
    },
    {
      "inputs": [
        {
          "internalType": "uint256",
          "name": "projectId",
          "type": "uint256"
        }
      ],
      "name": "getProjectDetails",
      "outputs": [
        {
          "internalType": "address",
          "name": "freelancer",
          "type": "address"
        },
        {
          "internalType": "uint256[]",
          "name": "milestones",
          "type": "uint256[]"
        },
        {
          "internalType": "bool[]",
          "name": "completedMilestones",
          "type": "bool[]"
        },
        {
          "internalType": "bool",
          "name": "projectComplete",
          "type": "bool"
        }
      ],
      "stateMutability": "view",
      "type": "function"
    }
  ],
  "bytecode": "0x608060405234801561000f575f80fd5b5061255a8061001d5f395ff3fe6080604052600436106100a6575f3560e01c8063564a565d11610063578063564a565d146101a95780635bb6b421146101e95780635f8439e314610205578063a28889e114610244578063a4f5df121461026e578063d47ffcd7146102aa576100a6565b80630875b784146100aa578063107046bd146100d257806320913da51461011157806336fbad26146101395780633eb5241d146101635780634d798de51461016d575b5f80fd5b3480156100b5575f80fd5b506100d060048036038101906100cb9190611457565b6102d2565b005b3480156100dd575f80fd5b506100f860048036038101906100f39190611495565b61048c565b6040516101089493929190611528565b60405180910390f35b34801561011c575f80fd5b5061013760048036038101906101329190611457565b610501565b005b348015610144575f80fd5b5061014d610894565b60405161015a919061156b565b60405180910390f35b61016b61089a565b005b348015610178575f80fd5b50610193600480360381019061018e9190611495565b6108de565b6040516101a09190611584565b60405180910390f35b3480156101b4575f80fd5b506101cf60048036038101906101ca9190611495565b6109e8565b6040516101e095949392919061159d565b60405180910390f35b61020360048036038101906101fe91906118f6565b610a26565b005b348015610210575f80fd5b5061022b60048036038101906102269190611495565b610cce565b60405161023b9493929190611aec565b60405180910390f35b34801561024f575f80fd5b50610258610df6565b604051610265919061156b565b60405180910390f35b348015610279575f80fd5b50610294600480360381019061028f9190611b67565b610dfc565b6040516102a19190611584565b60405180910390f35b3480156102b5575f80fd5b506102d060048036038101906102cb9190611457565b61106c565b005b815f808281526020019081526020015f206001015f9054906101000a900473ffffffffffffffffffffffffffffffffffffffff1673ffffffffffffffffffffffffffffffffffffffff163373ffffffffffffffffffffffffffffffffffffffff1614610373576040517f08c379a000000000000000000000000000000000000000000000000000000000815260040161036a90611c25565b60405180910390fd5b5f808481526020019081526020015f206002018054905082106103cb576040517f08c379a00000000000000000000000000000000000000000000000000000000081526004016103c290611c8d565b60405180910390fd5b5f808481526020019081526020015f2060040182815481106103f0576103ef611cab565b5b905f5260205f2090602091828204019190069054906101000a900460ff161561044e576040517f08c379a000000000000000000000000000000000000000000000000000000000815260040161044590611d22565b60405180910390fd5b7f26cf581e2709e0615164af15a371b2dd10fb48d5baed91e9eacd557633c16bcb838360405161047f929190611d40565b60405180910390a1505050565b5f602052805f5260405f205f91509050805f015f9054906101000a900473ffffffffffffffffffffffffffffffffffffffff1690806001015f9054906101000a900473ffffffffffffffffffffffffffffffffffffffff1690806005015f9054906101000a900460ff16908060060154905084565b815f808281526020019081526020015f205f015f9054906101000a900473ffffffffffffffffffffffffffffffffffffffff1673ffffffffffffffffffffffffffffffffffffffff163373ffffffffffffffffffffffffffffffffffffffff16146105a1576040517f08c379a000000000000000000000000000000000000000000000000000000000815260040161059890611dd7565b60405180910390fd5b5f808481526020019081526020015f206002018054905082106105f9576040517f08c379a00000000000000000000000000000000000000000000000000000000081526004016105f090611c8d565b60405180910390fd5b5f808481526020019081526020015f20600401828154811061061e5761061d611cab565b5b905f5260205f2090602091828204019190069054906101000a900460ff161561067c576040517f08c379a000000000000000000000000000000000000000000000000000000000815260040161067390611e3f565b60405180910390fd5b60015f808581526020019081526020015f2060040183815481106106a3576106a2611cab565b5b905f5260205f2090602091828204019190066101000a81548160ff0219169083151502179055505f805f8581526020019081526020015f2060020183815481106106f0576106ef611cab565b5b905f5260205f2001549050805f808681526020019081526020015f206006015f82825461071d9190611e8a565b925050819055505f808581526020019081526020015f206001015f9054906101000a900473ffffffffffffffffffffffffffffffffffffffff1673ffffffffffffffffffffffffffffffffffffffff166108fc8290811502906040515f60405180830381858888f19350505050158015610799573d5f803e3d5ffd5b507f939da3b627c123c81fe5aacebf925163337a0d4f8a03724640618078cad2489484846040516107cb929190611d40565b60405180910390a15f600190505f5b5f808781526020019081526020015f206002018054905081101561085a575f808781526020019081526020015f20600401818154811061081d5761081c611cab565b5b905f5260205f2090602091828204019190069054906101000a900460ff16610847575f915061085a565b808061085290611ebd565b9150506107da565b50801561088d5760015f808781526020019081526020015f206005015f6101000a81548160ff0219169083151502179055505b5050505050565b60025481565b5f34116108dc576040517f08c379a00000000000000000000000000000000000000000000000000000000081526004016108d390611f74565b60405180910390fd5b565b5f815f808281526020019081526020015f205f015f9054906101000a900473ffffffffffffffffffffffffffffffffffffffff1673ffffffffffffffffffffffffffffffffffffffff163373ffffffffffffffffffffffffffffffffffffffff161461097f576040517f08c379a000000000000000000000000000000000000000000000000000000000815260040161097690611dd7565b60405180910390fd5b5f808481526020019081526020015f206005015f9054906101000a900460ff166109de576040517f08c379a00000000000000000000000000000000000000000000000000000000081526004016109d590611fdc565b60405180910390fd5b6001915050919050565b6001602052805f5260405f205f91509050805f015490806001015490806004015490806005015490806006015f9054906101000a900460ff16905085565b5f3411610a68576040517f08c379a0000000000000000000000000000000000000000000000000000000008152600401610a5f90612044565b60405180910390fd5b8051825114610aac576040517f08c379a0000000000000000000000000000000000000000000000000000000008152600401610aa3906120d2565b60405180910390fd5b6040518060e001604052803373ffffffffffffffffffffffffffffffffffffffff1681526020018473ffffffffffffffffffffffffffffffffffffffff168152602001838152602001828152602001835167ffffffffffffffff811115610b1657610b1561162c565b5b604051908082528060200260200182016040528015610b445781602001602082028036833780820191505090505b5081526020015f15158152602001348152505f8060025481526020019081526020015f205f820151815f015f6101000a81548173ffffffffffffffffffffffffffffffffffffffff021916908373ffffffffffffffffffffffffffffffffffffffff1602179055506020820151816001015f6101000a81548173ffffffffffffffffffffffffffffffffffffffff021916908373ffffffffffffffffffffffffffffffffffffffff1602179055506040820151816002019080519060200190610c0e929190611255565b506060820151816003019080519060200190610c2b9291906112a0565b506080820151816004019080519060200190610c489291906112f7565b5060a0820151816005015f6101000a81548160ff02191690831515021790555060c082015181600601559050507f89d08535246e9977769e1f3a9c7b5cf99c9ea6c5c7362972d02f1d0598fba5e06002543385604051610caa939291906120f0565b60405180910390a160025f815480929190610cc490611ebd565b9190505550505050565b5f6060805f805f808781526020019081526020015f209050806001015f9054906101000a900473ffffffffffffffffffffffffffffffffffffffff168160020182600401836005015f9054906101000a900460ff1682805480602002602001604051908101604052809291908181526020018280548015610d6c57602002820191905f5260205f20905b815481526020019060010190808311610d58575b5050505050925081805480602002602001604051908101604052809291908181526020018280548015610ddf57602002820191905f5260205f20905f905b82829054906101000a900460ff161515815260200190600101906020825f01049283019260010382029150808411610daa5790505b505050505091509450945094509450509193509193565b60035481565b5f8060015f8581526020019081526020015f209050806006015f9054906101000a900460ff1615610e62576040517f08c379a0000000000000000000000000000000000000000000000000000000008152600401610e599061216f565b60405180910390fd5b806003015f3373ffffffffffffffffffffffffffffffffffffffff1673ffffffffffffffffffffffffffffffffffffffff1681526020019081526020015f205f9054906101000a900460ff1615610eee576040517f08c379a0000000000000000000000000000000000000000000000000000000008152600401610ee5906121d7565b60405180910390fd5b8060020133908060018154018082558091505060019003905f5260205f20015f9091909190916101000a81548173ffffffffffffffffffffffffffffffffffffffff021916908373ffffffffffffffffffffffffffffffffffffffff1602179055506001816003015f3373ffffffffffffffffffffffffffffffffffffffff1673ffffffffffffffffffffffffffffffffffffffff1681526020019081526020015f205f6101000a81548160ff0219169083151502179055508215610fcb57806004015f815480929190610fc190611ebd565b9190505550610fe5565b806005015f815480929190610fdf90611ebd565b91905055505b6003816002018054905010611061576001816006015f6101000a81548160ff0219169083151502179055505f816005015482600401541190507f5a87909bff68caaaaf0b3fd9c74eeccc928832f879315e5c6fb7a73612f26c0c858260405161104f9291906121f5565b60405180910390a18092505050611066565b5f9150505b92915050565b815f808281526020019081526020015f205f015f9054906101000a900473ffffffffffffffffffffffffffffffffffffffff1673ffffffffffffffffffffffffffffffffffffffff163373ffffffffffffffffffffffffffffffffffffffff161461110c576040517f08c379a000000000000000000000000000000000000000000000000000000000815260040161110390611dd7565b60405180910390fd5b5f808481526020019081526020015f20600201805490508210611164576040517f08c379a000000000000000000000000000000000000000000000000000000000815260040161115b90611c8d565b60405180910390fd5b8260015f60035481526020019081526020015f205f01819055508160015f60035481526020019081526020015f20600101819055505f60015f60035481526020019081526020015f20600401819055505f60015f60035481526020019081526020015f20600501819055505f60015f60035481526020019081526020015f206006015f6101000a81548160ff0219169083151502179055507f8092765f946b732cf44a3a396fe2854f71320d246c46d0f03ccb563fcbcc920e60035484846040516112319392919061221c565b60405180910390a160035f81548092919061124b90611ebd565b9190505550505050565b828054828255905f5260205f2090810192821561128f579160200282015b8281111561128e578251825591602001919060010190611273565b5b50905061129c9190611398565b5090565b828054828255905f5260205f209081019282156112e6579160200282015b828111156112e55782518290816112d59190612455565b50916020019190600101906112be565b5b5090506112f391906113b3565b5090565b828054828255905f5260205f2090601f01602090048101928215611387579160200282015f5b8382111561135957835183826101000a81548160ff02191690831515021790555092602001926001016020815f0104928301926001030261131d565b80156113855782816101000a81549060ff02191690556001016020815f01049283019260010302611359565b505b5090506113949190611398565b5090565b5b808211156113af575f815f905550600101611399565b5090565b5b808211156113d2575f81816113c991906113d6565b506001016113b4565b5090565b5080546113e290612288565b5f825580601f106113f35750611410565b601f0160209004905f5260205f209081019061140f9190611398565b5b50565b5f604051905090565b5f80fd5b5f80fd5b5f819050919050565b61143681611424565b8114611440575f80fd5b50565b5f813590506114518161142d565b92915050565b5f806040838503121561146d5761146c61141c565b5b5f61147a85828601611443565b925050602061148b85828601611443565b9150509250929050565b5f602082840312156114aa576114a961141c565b5b5f6114b784828501611443565b91505092915050565b5f73ffffffffffffffffffffffffffffffffffffffff82169050919050565b5f6114e9826114c0565b9050919050565b6114f9816114df565b82525050565b5f8115159050919050565b611513816114ff565b82525050565b61152281611424565b82525050565b5f60808201905061153b5f8301876114f0565b61154860208301866114f0565b611555604083018561150a565b6115626060830184611519565b95945050505050565b5f60208201905061157e5f830184611519565b92915050565b5f6020820190506115975f83018461150a565b92915050565b5f60a0820190506115b05f830188611519565b6115bd6020830187611519565b6115ca6040830186611519565b6115d76060830185611519565b6115e4608083018461150a565b9695505050505050565b6115f7816114df565b8114611601575f80fd5b50565b5f81359050611612816115ee565b92915050565b5f80fd5b5f601f19601f8301169050919050565b7f4e487b71000000000000000000000000000000000000000000000000000000005f52604160045260245ffd5b6116628261161c565b810181811067ffffffffffffffff821117156116815761168061162c565b5b80604052505050565b5f611693611413565b905061169f8282611659565b919050565b5f67ffffffffffffffff8211156116be576116bd61162c565b5b602082029050602081019050919050565b5f80fd5b5f6116e56116e0846116a4565b61168a565b90508083825260208201905060208402830185811115611708576117076116cf565b5b835b81811015611731578061171d8882611443565b84526020840193505060208101905061170a565b5050509392505050565b5f82601f83011261174f5761174e611618565b5b813561175f8482602086016116d3565b91505092915050565b5f67ffffffffffffffff8211156117825761178161162c565b5b602082029050602081019050919050565b5f80fd5b5f67ffffffffffffffff8211156117b1576117b061162c565b5b6117ba8261161c565b9050602081019050919050565b828183375f83830152505050565b5f6117e76117e284611797565b61168a565b90508281526020810184848401111561180357611802611793565b5b61180e8482856117c7565b509392505050565b5f82601f83011261182a57611829611618565b5b813561183a8482602086016117d5565b91505092915050565b5f61185561185084611768565b61168a565b90508083825260208201905060208402830185811115611878576118776116cf565b5b835b818110156118bf57803567ffffffffffffffff81111561189d5761189c611618565b5b8086016118aa8982611816565b8552602085019450505060208101905061187a565b5050509392505050565b5f82601f8301126118dd576118dc611618565b5b81356118ed848260208601611843565b91505092915050565b5f805f6060848603121561190d5761190c61141c565b5b5f61191a86828701611604565b935050602084013567ffffffffffffffff81111561193b5761193a611420565b5b6119478682870161173b565b925050604084013567ffffffffffffffff81111561196857611967611420565b5b611974868287016118c9565b9150509250925092565b5f81519050919050565b5f82825260208201905092915050565b5f819050602082019050919050565b6119b081611424565b82525050565b5f6119c183836119a7565b60208301905092915050565b5f602082019050919050565b5f6119e38261197e565b6119ed8185611988565b93506119f883611998565b805f5b83811015611a28578151611a0f88826119b6565b9750611a1a836119cd565b9250506001810190506119fb565b5085935050505092915050565b5f81519050919050565b5f82825260208201905092915050565b5f819050602082019050919050565b611a67816114ff565b82525050565b5f611a788383611a5e565b60208301905092915050565b5f602082019050919050565b5f611a9a82611a35565b611aa48185611a3f565b9350611aaf83611a4f565b805f5b83811015611adf578151611ac68882611a6d565b9750611ad183611a84565b925050600181019050611ab2565b5085935050505092915050565b5f608082019050611aff5f8301876114f0565b8181036020830152611b1181866119d9565b90508181036040830152611b258185611a90565b9050611b34606083018461150a565b95945050505050565b611b46816114ff565b8114611b50575f80fd5b50565b5f81359050611b6181611b3d565b92915050565b5f8060408385031215611b7d57611b7c61141c565b5b5f611b8a85828601611443565b9250506020611b9b85828601611b53565b9150509250929050565b5f82825260208201905092915050565b7f4f6e6c7920667265656c616e6365722063616e2063616c6c20746869732066755f8201527f6e6374696f6e0000000000000000000000000000000000000000000000000000602082015250565b5f611c0f602683611ba5565b9150611c1a82611bb5565b604082019050919050565b5f6020820190508181035f830152611c3c81611c03565b9050919050565b7f496e76616c6964206d696c6573746f6e6520696e6465780000000000000000005f82015250565b5f611c77601783611ba5565b9150611c8282611c43565b602082019050919050565b5f6020820190508181035f830152611ca481611c6b565b9050919050565b7f4e487b71000000000000000000000000000000000000000000000000000000005f52603260045260245ffd5b7f4d696c6573746f6e6520616c7265616479207375626d697474656400000000005f82015250565b5f611d0c601b83611ba5565b9150611d1782611cd8565b602082019050919050565b5f6020820190508181035f830152611d3981611d00565b9050919050565b5f604082019050611d535f830185611519565b611d606020830184611519565b9392505050565b7f4f6e6c7920636c69656e742063616e2063616c6c20746869732066756e6374695f8201527f6f6e000000000000000000000000000000000000000000000000000000000000602082015250565b5f611dc1602283611ba5565b9150611dcc82611d67565b604082019050919050565b5f6020820190508181035f830152611dee81611db5565b9050919050565b7f4d696c6573746f6e6520616c726561647920617070726f7665640000000000005f82015250565b5f611e29601a83611ba5565b9150611e3482611df5565b602082019050919050565b5f6020820190508181035f830152611e5681611e1d565b9050919050565b7f4e487b71000000000000000000000000000000000000000000000000000000005f52601160045260245ffd5b5f611e9482611424565b9150611e9f83611424565b9250828203905081811115611eb757611eb6611e5d565b5b92915050565b5f611ec782611424565b91507fffffffffffffffffffffffffffffffffffffffffffffffffffffffffffffffff8203611ef957611ef8611e5d565b5b600182019050919050565b7f4465706f73697420616d6f756e74206d757374206265206772656174657220745f8201527f68616e207a65726f000000000000000000000000000000000000000000000000602082015250565b5f611f5e602883611ba5565b9150611f6982611f04565b604082019050919050565b5f6020820190508181035f830152611f8b81611f52565b9050919050565b7f50726f6a656374206973206e6f7420636f6d706c6574650000000000000000005f82015250565b5f611fc6601783611ba5565b9150611fd182611f92565b602082019050919050565b5f6020820190508181035f830152611ff381611fba565b9050919050565b7f457363726f7720616d6f756e74206d7573742062652070726f766964656400005f82015250565b5f61202e601e83611ba5565b915061203982611ffa565b602082019050919050565b5f6020820190508181035f83015261205b81612022565b9050919050565b7f4d696c6573746f6e657320616e64206465736372697074696f6e73206d7573745f8201527f206d617463680000000000000000000000000000000000000000000000000000602082015250565b5f6120bc602683611ba5565b91506120c782612062565b604082019050919050565b5f6020820190508181035f8301526120e9816120b0565b9050919050565b5f6060820190506121035f830186611519565b61211060208301856114f0565b61211d60408301846114f0565b949350505050565b7f4469737075746520616c7265616479207265736f6c76656400000000000000005f82015250565b5f612159601883611ba5565b915061216482612125565b602082019050919050565b5f6020820190508181035f8301526121868161214d565b9050919050565b7f596f75206861766520616c726561647920766f746564000000000000000000005f82015250565b5f6121c1601683611ba5565b91506121cc8261218d565b602082019050919050565b5f6020820190508181035f8301526121ee816121b5565b9050919050565b5f6040820190506122085f830185611519565b612215602083018461150a565b9392505050565b5f60608201905061222f5f830186611519565b61223c6020830185611519565b6122496040830184611519565b949350505050565b5f81519050919050565b7f4e487b71000000000000000000000000000000000000000000000000000000005f52602260045260245ffd5b5f600282049050600182168061229f57607f821691505b6020821081036122b2576122b161225b565b5b50919050565b5f819050815f5260205f209050919050565b5f6020601f8301049050919050565b5f82821b905092915050565b5f600883026123147fffffffffffffffffffffffffffffffffffffffffffffffffffffffffffffffff826122d9565b61231e86836122d9565b95508019841693508086168417925050509392505050565b5f819050919050565b5f61235961235461234f84611424565b612336565b611424565b9050919050565b5f819050919050565b6123728361233f565b61238661237e82612360565b8484546122e5565b825550505050565b5f90565b61239a61238e565b6123a5818484612369565b505050565b5b818110156123c8576123bd5f82612392565b6001810190506123ab565b5050565b601f82111561240d576123de816122b8565b6123e7846122ca565b810160208510156123f6578190505b61240a612402856122ca565b8301826123aa565b50505b505050565b5f82821c905092915050565b5f61242d5f1984600802612412565b1980831691505092915050565b5f612445838361241e565b9150826002028217905092915050565b61245e82612251565b67ffffffffffffffff8111156124775761247661162c565b5b6124818254612288565b61248c8282856123cc565b5f60209050601f8311600181146124bd575f84156124ab578287015190505b6124b5858261243a565b86555061251c565b601f1984166124cb866122b8565b5f5b828110156124f2578489015182556001820191506020850194506020810190506124cd565b8683101561250f578489015161250b601f89168261241e565b8355505b6001600288020188555050505b50505050505056fea2646970667358221220215ca6361539ac6bb4ef3ddda74810583d4ebfc85b8ee4729ac4b2b692728eb764736f6c63430008140033",
  "immutableReferences": {},
  "source": "// SPDX-License-Identifier: MIT\npragma solidity ^0.8.20;\n\ncontract FreelanceManagementPlatform {\n    // Struct representing a project\n    \n    struct Project {\n        address client; // Client who creates the project\n        address freelancer; // Freelancer assigned to the project\n        uint256[] milestones; // Payment amounts for each milestone\n        string[] descriptions; // Descriptions for each milestone\n        bool[] completedMilestones; // Status of each milestone\n        bool projectComplete; // Whether the project is complete\n        uint256 escrowedAmount; // Total funds escrowed for the project\n    }\n\n    // Struct representing a dispute\n    struct Dispute {\n        uint256 projectId; // ID of the disputed project\n        uint256 milestoneIndex; // Index of the disputed milestone\n        address[] voters; // Addresses of voters in the dispute\n        mapping(address => bool) hasVoted; // Whether an address has voted\n        uint256 votesForCompletion; // Votes for milestone completion\n        uint256 votesAgainstCompletion; // Votes against milestone completion\n        bool resolved; // Whether the dispute is resolved\n    }\n\n    // Mappings for storing projects and disputes\n    mapping(uint256 => Project) public projects;\n    mapping(uint256 => Dispute) public disputes;\n    uint256 public projectCount; // Total number of projects\n    uint256 public disputeCount; // Total number of disputes\n\n    // Events to log important actions\n    event ProjectCreated(uint256 projectId, address client, address freelancer);\n    event MilestoneSubmitted(uint256 projectId, uint256 milestoneIndex);\n    event MilestoneApproved(uint256 projectId, uint256 milestoneIndex);\n    event DisputeCreated(uint256 disputeId, uint256 projectId, uint256 milestoneIndex);\n    event DisputeResolved(uint256 disputeId, bool milestoneApproved);\n\n    // Modifier to restrict access to the client of a project\n    modifier onlyClient(uint256 projectId) {\n        require(msg.sender == projects[projectId].client, \"Only client can call this function\");\n        _;\n    }\n\n    // Modifier to restrict access to the freelancer of a project\n    modifier onlyFreelancer(uint256 projectId) {\n        require(msg.sender == projects[projectId].freelancer, \"Only freelancer can call this function\");\n        _;\n    }\n\n    // Function to deposit funds into the contract\n    function depositToEscrow() public payable {\n        require(msg.value > 0, \"Deposit amount must be greater than zero\");\n    }\n\n    // Function to create a new project\n    function createProject(\n        address freelancer,\n        uint256[] memory milestones,\n        string[] memory descriptions\n    ) public payable {\n        require(msg.value > 0, \"Escrow amount must be provided\");\n        require(milestones.length == descriptions.length, \"Milestones and descriptions must match\");\n\n        projects[projectCount] = Project({\n            client: msg.sender,\n            freelancer: freelancer,\n            milestones: milestones,\n            descriptions: descriptions,\n            completedMilestones: new bool[](milestones.length),\n            projectComplete: false,\n            escrowedAmount: msg.value\n        });\n\n        emit ProjectCreated(projectCount, msg.sender, freelancer);\n        projectCount++;\n    }\n\n    // Function for the freelancer to submit a milestone\n    function submitMilestone(uint256 projectId, uint256 milestoneIndex) public onlyFreelancer(projectId) {\n        require(milestoneIndex < projects[projectId].milestones.length, \"Invalid milestone index\");\n        require(!projects[projectId].completedMilestones[milestoneIndex], \"Milestone already submitted\");\n\n        emit MilestoneSubmitted(projectId, milestoneIndex);\n    }\n\n    // Function for the client to approve a milestone\n    function approveMilestone(uint256 projectId, uint256 milestoneIndex) public onlyClient(projectId) {\n        require(milestoneIndex < projects[projectId].milestones.length, \"Invalid milestone index\");\n        require(!projects[projectId].completedMilestones[milestoneIndex], \"Milestone already approved\");\n\n        projects[projectId].completedMilestones[milestoneIndex] = true;\n        uint256 milestonePayment = projects[projectId].milestones[milestoneIndex];\n        projects[projectId].escrowedAmount -= milestonePayment;\n\n        payable(projects[projectId].freelancer).transfer(milestonePayment);\n\n        emit MilestoneApproved(projectId, milestoneIndex);\n\n        // Check if all milestones are complete\n        bool allComplete = true;\n        for (uint256 i = 0; i < projects[projectId].milestones.length; i++) {\n            if (!projects[projectId].completedMilestones[i]) {\n                allComplete = false;\n                break;\n            }\n        }\n        if (allComplete) {\n            projects[projectId].projectComplete = true;\n        }\n    }\n\n    // Function to create a dispute for a milestone\n    function disputeMilestone(uint256 projectId, uint256 milestoneIndex) public onlyClient(projectId) {\n        require(milestoneIndex < projects[projectId].milestones.length, \"Invalid milestone index\");\n\n        disputes[disputeCount].projectId = projectId;\n        disputes[disputeCount].milestoneIndex = milestoneIndex;\n        disputes[disputeCount].votesForCompletion = 0;\n        disputes[disputeCount].votesAgainstCompletion = 0;\n        disputes[disputeCount].resolved = false;\n        disputes; // Initialize empty array\n\n        emit DisputeCreated(disputeCount, projectId, milestoneIndex);\n        disputeCount++;\n    }\n\n    // Function for community members to vote on a dispute\n    function voteOnDispute(uint256 disputeId, bool voteForCompletion) public returns (bool) {\n        Dispute storage dispute = disputes[disputeId];\n        require(!dispute.resolved, \"Dispute already resolved\");\n        require(!dispute.hasVoted[msg.sender], \"You have already voted\");\n\n        dispute.voters.push(msg.sender);\n        dispute.hasVoted[msg.sender] = true;\n\n        if (voteForCompletion) {\n            dispute.votesForCompletion++;\n        } else {\n            dispute.votesAgainstCompletion++;\n        }\n\n        // Check if dispute can be resolved\n        if (dispute.voters.length >= 3) { // Example: Resolve after 3 votes\n            dispute.resolved = true;\n            bool milestoneApproved = dispute.votesForCompletion > dispute.votesAgainstCompletion;\n            emit DisputeResolved(disputeId, milestoneApproved);\n            return milestoneApproved;\n        }\n\n        return false;\n    }\n\n    // Function to finalize the project\n    function finalizeProject(uint256 projectId) public view onlyClient(projectId) returns (bool) {\n        require(projects[projectId].projectComplete, \"Project is not complete\");\n        return true;\n    }\n\n    // Function to get project details\n    function getProjectDetails(uint256 projectId)\n        public\n        view\n        returns (\n            address freelancer,\n            uint256[] memory milestones,\n            bool[] memory completedMilestones,\n            bool projectComplete\n        )\n    {\n        Project storage project = projects[projectId];\n        return (\n            project.freelancer,\n            project.milestones,\n            project.completedMilestones,\n            project.projectComplete\n        );\n    }\n}",
  "sourcePath": "/Users/lanyechan/Desktop/CSCourse/CSIT6000Q/Project/contracts/FreelanceManagementPlatform.sol",
  "compiler": {
    "name": "solc",
    "version": "0.8.20+commit.a1b79de6.Emscripten.clang"
  },
  "schemaVersion": "3.4.16",
  "updatedAt": "2024-12-03T10:48:26.352Z",
  "devdoc": {
    "kind": "dev",
    "methods": {},
    "version": 1
  },
  "userdoc": {
    "kind": "user",
    "methods": {},
    "version": 1
  }
}